:020000040800F2
:1000000000000524591C01089D1A0108AB1A0108BB
:10001000B31A0108BB1A0108C31A01080000000046
:10002000000000000000000000000000CB1A0108E2
:10003000D91A010800000000E71A0108F51A0108A2
:10004000A91C0108A91C0108A91C0108A91C010878
:10005000A91C0108A91C0108A91C0108A91C010868
:100060000F1B0108A91C0108A91C0108A91C0108F3
:10007000A91C0108A91C0108A91C0108A91C010848
:10008000A91C0108A91C0108A91C0108A91C010838
:10009000A91C0108A91C0108A91C01081D1B0108B5
:1000A000A91C0108A91C0108A91C0108A91C010818
:1000B000A91C0108A91C0108A91C0108A91C010808
:1000C000A91C0108A91C0108A91C0108A91C0108F8
:1000D000A91C0108A91C0108A91C0108A91C0108E8
:1000E0002B1B0108A91C010800000000A91C010825
:1000F000A91C0108A91C0108A91C0108A91C0108C8
:10010000A91C0108011B0108A91C0108A91C010860
:10011000A91C0108A91C0108A91C0108A91C0108A7
:10012000391B0108A91C0108491B0108591B0108BA
:10013000691B0108A91C0108A91C0108A91C0108C8
:1001400000000000000000000000000000000000AF
:10015000A91C0108791B0108871B0108A91C0108BB
:10016000A91C0108A91C0108A91C0108A91C010857
:10017000A91C0108A91C0108A91C0108A91C010847
:10018000A91C0108A91C0108A91C0108A91C010837
:10019000A91C0108A91C0108A91C0108A91C010827
:1001A000A91C0108A91C0108A91C010800000000E5
:1001B000A91C0108A91C0108A91C0108A91C010807
:1001C000A91C0108A91C0108000000000000000093
:1001D0000000000000000000A91C01080000000051
:1001E000000000000000000000000000000000000F
:1001F0000000000000000000A91C0108A91C010863
:10020000A91C0108A91C010800000000A91C010884
:10021000A91C0108A91C0108A91C0108A91C0108A6
:10022000A91C010800000000A91C01080000000032
:10023000A91C0108A91C010800000000A91C010854
:10024000A91C0108A91C0108971B0108A91C010889
:10025000A91C0108A91C0108A91C0108A91C010866
:10026000A91C0108A91C0108A91C0108A91C010856
:10027000A91C0108A91C0108A91C01080000000014
:10028000A91C0108A91C0108A91C0108A91C010836
:1002900000000000A91C0108A91C0108A91C0108F4
:1002A000A91C0108A91C0108A91C0108A91C010816
:1002B000A91C0108A91C0108A91C0108A91C010806
:0C02C000A91C0108A91C0108A91C0108C8
:1002D00010B5054C237833B9044B13B10448AFF380
:1002E00000800123237010BDA00E00240000000038
:1002F000385A010808B5034B1BB103490348AFF353
:10030000008008BD00000000A40E0024385A010837
:1003100080B584B000AF786039607B68002B03D172
:100320004FF0FF33FB602CE03B681A687B681A6073
:100330003B685A687B685A603B681A897B681A81F7
:100340003B68DA687B68DA603B681A697B681A6127
:100350003B685A697B685A617B680C4ADA617B6842
:100360000B4A9A617B687A681A627B681B68002B6B
:1003700004D07B681B689847F86002E04FF0FF33B9
:10038000FB60FB6818461037BD4680BDB50300080A
:10039000E903000880B582B000AF786039607B68FF
:1003A00018333968184600F050F8034618460837E5
:1003B000BD4680BD90B587B000AFF8607A601A4640
:1003C0000B46FB7213463B81FB687B617B691C69B2
:1003D0007B691889FB7A99B23B897A68A047034602
:1003E00018461C37BD4690BD90B587B000AFF86089
:1003F0007A601A460B46FB7213463B81FB687B61B1
:100400007B69DC687B691889FB7A99B23B897A68D9
:10041000A047034618461C37BD4690BD90B585B031
:1004200000AFF8607A601A460B46FB7213463B81B8
:10043000FB685C68FB6898683B89F97A7A68A04732
:10044000034618461437BD4690BD80B584B000AF52
:100450007860396001233A68A8217868FFF7DEFFE9
:10046000F860FB68002B07D13B681A783B681A706C
:100470003B681A783B681A70FB6818461037BD460F
:1004800080BD80B58AB000AF786000237B614FF4F7
:100490004053FB610023BB614FF000537B6201239B
:1004A0003B6207F1140341F28832194678680BF079
:1004B0005FFF0346002B02D04FF0FF330EE0002316
:1004C000FB6007F10C03194678680CF0C9F8034685
:1004D000002B02D04FF0FF3300E0002318462837EE
:1004E000BD4680BD80B588B000AF786039604FF000
:1004F0008073FB604FF440537B614FF480533B614A
:100500004FF00053FB610223BB6107F10C0341F282
:100510008832194678680BF02BFF0346002B02D077
:100520004FF0FF330CE041F28832396878680BF005
:10053000F3FF0346002B02D04FF0FF3300E000230F
:1005400018462037BD4680BD80B58EB000AFF8603C
:100550007A603B600B467B810323BB623B68FB6296
:1005600002233B637B687B6307F1280341F28832F7
:100570001946F8680BF0BDFE0346002B02D04FF081
:10058000FF333AE04FF080737B614FF44053FB61DF
:100590004FF48053BB614FF000537B6202233B62F8
:1005A00007F1140341F288321946F8680BF0E0FEB7
:1005B0000346002B02D04FF0FF331EE007F10A0381
:1005C00041F288321946F8680BF033FF0346002BDE
:1005D00002D04FF0FF3310E000233B6307F1280304
:1005E00041F288321946F8680BF083FE0346002B6F
:1005F00002D04FF0FF3300E0002318463837BD46E5
:1006000080BD000080B584B000AF786039600323FE
:100610007B817B6803F1180007F10A0202234FF483
:10062000817101F0B1FDF86000237B817B6803F1EB
:10063000180007F10A02022340F6170101F0A4FD99
:100640000246FB681344FB607B6803F1180007F166
:100650000A0202234FF4817101F096FD0246FB6805
:100660001344FB606C237B817B6803F1180007F166
:100670000A020223392101F087FD0246FB68134478
:10068000FB603B681B68002B0FD013237B817B68CA
:1006900003F1180007F10A020223012101F074FDA1
:1006A0000246FB681344FB600EE003237B817B68FA
:1006B00003F1180007F10A020223012101F064FD91
:1006C0000246FB681344FB603221786801F0E4FCC9
:1006D0003B685B68032B00F2418101A252F823F0D2
:1006E000F7090008F10600088B0700082508000834
:1006F00040F60C437B817B6803F1180007F10A0286
:100700000223052101F040FD0246FB681344FB6013
:1007100000237B817B6803F1180007F10A020223A2
:1007200040F2016101F030FD0246FB681344FB60BA
:100730007B6803F1180007F10A02022340F202610C
:1007400001F022FD0246FB681344FB6002237B811B
:100750007B6803F1180007F10A02022340F20461EA
:1007600001F012FD0246FB681344FB607B6803F155
:10077000180007F10A02022340F2056101F004FDAE
:100780000246FB681344FB6036E140F203337B8191
:100790007B6803F1180007F10A020223052101F02A
:1007A000F3FC0246FB681344FB6001237B817B68FA
:1007B00003F1180007F10A02022340F2016101F07F
:1007C000E3FC0246FB681344FB607B6803F11800FE
:1007D00007F10A02022340F2026101F0D5FC024651
:1007E000FB681344FB6000237B817B6803F11800E6
:1007F00007F10A02022340F2046101F0C5FC02463F
:10080000FB681344FB607B6803F1180007F10A02E0
:10081000022340F2056101F0B7FC0246FB68134475
:10082000FB60E9E03B681B68052B4AD140F60F737B
:100830007B817B6803F1180007F10A02022305217E
:1008400001F0A2FC0246FB681344FB6003237B819A
:100850007B6803F1180007F10A02022340F20161EC
:1008600001F092FC0246FB681344FB607B6803F1D5
:10087000180007F10A02022340F2026101F084FC31
:100880000246FB681344FB607B6803F1180007F124
:100890000A02022340F2046101F076FC0246FB6882
:1008A0001344FB607B6803F1180007F10A0202237E
:1008B00040F2056101F068FC0246FB681344FB60EE
:1008C0009AE040F60F737B817B6803F1180007F113
:1008D0000A020223052101F057FC0246FB6813447B
:1008E000FB6001237B817B6803F1180007F10A029A
:1008F000022340F2016101F047FC0246FB68134409
:10090000FB607B6803F1180007F10A02022340F242
:10091000026101F039FC0246FB681344FB600223CC
:100920007B817B6803F1180007F10A02022340F281
:10093000046101F029FC0246FB681344FB607B68FC
:1009400003F1180007F10A02022340F2056101F0E9
:100950001BFC0246FB681344FB604DE040F203338E
:100960007B817B6803F1180007F10A02022305214D
:1009700001F00AFC0246FB681344FB6001237B8103
:100980007B6803F1180007F10A02022340F20161BB
:1009900001F0FAFB0246FB681344FB607B6803F13D
:1009A000180007F10A02022340F2026101F0ECFB99
:1009B0000246FB681344FB6000237B817B6803F1E4
:1009C000180007F10A02022340F2046101F0DCFB87
:1009D0000246FB681344FB607B6803F1180007F1D3
:1009E0000A02022340F2056101F0CEFB0246FB68D9
:1009F0001344FB6000E000BF3B681B68013B042B15
:100A000000F2DF8101A252F823F000BFF30B0008CF
:100A1000210A0008DF0A0008C30D0008B10C000815
:100A20004FF443637B817B6803F1180007F10A02EE
:100A30000223042101F0A8FB0246FB681344FB607B
:100A4000DB237B817B6803F1180007F10A02022394
:100A50004FF48A6101F098FB0246FB681344FB6087
:100A60004FF4C0437B817B6803F1180007F10A0251
:100A70000223022101F088FB0246FB681344FB605D
:100A800002237B817B6803F1180007F10A0202232D
:100A90004FF4C16101F078FB0246FB681344FB6030
:100AA0007B6803F1180007F10A02022340F2096192
:100AB00001F06AFB0246FB681344FB600E237B8156
:100AC0007B6803F1180007F10A0202234FF4E0618A
:100AD00001F05AFB0246FB681344FB6072E11123EC
:100AE0007B817B6803F1180007F10A0202232821A9
:100AF00001F04AFB0246FB681344FB6035237B810F
:100B00007B6803F1180007F10A020223292101F092
:100B10003BFB0246FB681344FB607B6803F1180053
:100B200007F10A0202232A2101F02EFB0246FB688C
:100B30001344FB6040F203337B817B6803F11800B0
:100B400007F10A020223042101F01EFB0246FB68A2
:100B50001344FB60DB237B817B6803F1180007F102
:100B60000A0202234FF4886101F00EFB0246FB6883
:100B70001344FB6046F250337B817B6803F118001D
:100B800007F10A020223022101F0FEFA0246FB6885
:100B90001344FB6002237B817B6803F1180007F19B
:100BA0000A02022340F2066101F0EEFA0246FB68F7
:100BB0001344FB607B6803F1180007F10A0202236B
:100BC00040F2076101F0E0FA0246FB681344FB6063
:100BD0000D237B817B6803F1180007F10A020223D1
:100BE0004FF4E06101F0D0FA0246FB681344FB6069
:100BF000E8E04FF443737B817B6803F1180007F151
:100C00000A020223042101F0BFFA0246FB681344E2
:100C1000FB60DB237B817B6803F1180007F10A028C
:100C200002234FF4886101F0AFFA0246FB681344D7
:100C3000FB6046F250337B817B6803F1180007F1BB
:100C40000A020223022101F09FFA0246FB681344C4
:100C5000FB6002237B817B6803F1180007F10A0225
:100C6000022340F2066101F08FFA0246FB6813444A
:100C7000FB607B6803F1180007F10A02022340F2CF
:100C8000076101F081FA0246FB681344FB600D2303
:100C90007B817B6803F1180007F10A0202234FF4FD
:100CA000E06101F071FA0246FB681344FB6089E0E1
:100CB00040F63C737B817B6803F1180007F10A0260
:100CC0000223042101F060FA0246FB681344FB6032
:100CD000DB237B817B6803F1180007F10A02022302
:100CE0004FF48A6101F050FA0246FB681344FB603E
:100CF0007B6803F1180007F10A0202234FF48861B0
:100D000001F042FA0246FB681344FB6046F2A0334E
:100D10007B817B6803F1180007F10A02022302219C
:100D200001F032FA0246FB681344FB6002237B8128
:100D30007B6803F1180007F10A02022340F2066102
:100D400001F022FA0246FB681344FB607B6803F162
:100D5000180007F10A02022340F2076101F014FAB9
:100D60000246FB681344FB607B6803F1180007F13F
:100D70000A0202234FF4C16101F006FA0246FB6841
:100D80001344FB607B6803F1180007F10A02022399
:100D900040F2096101F0F8F90246FB681344FB6078
:100DA0000D237B817B6803F1180007F10A020223FF
:100DB0004FF4E06101F0E8F90246FB681344FB6080
:100DC00000E000BF3B689B681946786800F0F2FFBE
:100DD0000246FB681344FB603B681B68052B1AD175
:100DE0000021786800F052FF0246FB681344FB6064
:100DF0000321786800F0A4FF0246FB681344FB60FF
:100E00007B6818330121184601F0EEFA0246FB68B0
:100E10001344FB601BE03B68DB681946786800F010
:100E200035FF0246FB681344FB600221786800F03E
:100E300087FF0246FB681344FB607B68183301217F
:100E4000184601F0D1FA0246FB681344FB60002308
:100E50007B817B6803F1180007F10A02022340F24C
:100E6000023101F091F90246FB681344FB600A234A
:100E70007B817B6803F1180007F10A0202234FF41B
:100E8000027101F081F90246FB681344FB60012303
:100E90007B817B6803F1180007F10A0202234FF4FB
:100EA000007101F071F90246FB681344FB603B6876
:100EB0005B68002B00F0C2813B685B68022B64D149
:100EC0003B681B68002B60D14FF480737B817B688B
:100ED00003F1180007F10A0202232D2101F054F951
:100EE0000246FB681344FB607B6803F1180007F1BE
:100EF0000A0202232E2101F047F90246FB6813443F
:100F0000FB60524B1B78012B19D14FF401437B81BD
:100F10007B6803F1180007F10A0202234FF488717D
:100F200001F032F90246FB681344FB60474B002294
:100F30001A7040F24511786801F0AEF814E048F2FA
:100F400008137B817B6803F1180007F10A02022372
:100F50004FF4887101F018F90246FB681344FB60F6
:100F60003221786801F098F800237B817B6803F1D7
:100F7000180007F10A0202234FF4846101F004F91A
:100F80000246FB681344FB60F3E04FF440737B813F
:100F90007B6803F1180007F10A020223032101F024
:100FA000F3F80246FB681344FB6000237B817B68F7
:100FB00003F1180007F10A020223222101F0E4F8EC
:100FC0000246FB681344FB607B6803F1180007F1DD
:100FD0000A020223232101F0D7F80246FB681344DA
:100FE000FB604FF440737B817B6803F1180007F1CD
:100FF0000A020223362101F0C7F80246FB681344B7
:10100000FB6043F203037B817B6803F1180007F167
:101010000A020223012101F0B7F80246FB681344DB
:10102000FB603B681B68052B12D140F205237B81D6
:101030007B6803F1180007F10A020223512101F035
:10104000A3F80246FB681344FB6010E04804002448
:1010500005237B817B6803F1180007F10A02022354
:10106000512101F091F80246FB681344FB6043F202
:1010700003337B817B6803F1180007F10A02022326
:10108000012101F081F80246FB681344FB60222332
:101090007B817B6803F1180007F10A0202236021BB
:1010A00001F072F80246FB681344FB6049F62573B1
:1010B0007B817B6803F1180007F10A0202234C21AF
:1010C00001F062F80246FB681344FB600F21786868
:1010D00000F0E2FF01237B817B6803F1180007F138
:1010E0000A0202232D2101F04FF80246FB68134447
:1010F000FB607B6803F1180007F10A0202232E212E
:1011000001F042F80246FB681344FB604FF44C7355
:101110007B817B6803F1180007F10A020223032197
:1011200001F032F80246FB681344FB6033237B81F5
:101130007B6803F1180007F10A020223542101F031
:1011400023F80246FB681344FB6040F20111786803
:1011500000F0A2FFEE237B817B6803F1180007F10A
:101160000A020223602101F00FF80246FB681344D3
:10117000FB60C0237B817B6803F1180007F10A0242
:1011800002234FF4C26100F0FFFF0246FB681344E4
:10119000FB607B6803F1180007F10A02022340F2AA
:1011A000116100F0F1FF0246FB681344FB6010235D
:1011B0007B817B6803F1180007F10A0202234FF4D8
:1011C000846100F0E1FF0246FB681344FB60C0232A
:1011D0007B817B6803F1180007F10A02022340F2C9
:1011E000126100F0D1FF0246FB681344FB607B688C
:1011F00003F1180007F10A02022340F2136100F024
:10120000C3FF0246FB681344FB6010237B817B68AD
:1012100003F1180007F10A02022340F2224100F014
:10122000B3FF0246FB681344FB603F22012178684C
:1012300000F09CF90246FB681344FB603B681B68A6
:10124000002B00F0B2803B681B68012B03D03B6889
:101250001B68022B30D113237B817B6803F11800BC
:1012600007F10A020223012100F08EFF0246FB680B
:101270001344FB6002237B817B6803F1180007F1B4
:101280000A0202234FF4C46100F07EFF0246FB68AD
:101290001344FB604FF460537B817B6803F11800BB
:1012A00007F10A02022340F2114100F06DFF0246ED
:1012B000FB681344FB606FE03B681B68052B3ED165
:1012C00013237B817B6803F1180007F10A020223D4
:1012D000012100F059FF0246FB681344FB60022322
:1012E0007B817B6803F1180007F10A0202234FF4A7
:1012F000C46100F049FF0246FB681344FB604FF4F1
:10130000C0537B817B6803F1180007F10A020223B6
:101310004FF4826100F038FF0246FB681344FB6023
:101320007B6803F1180007F10A02022340F2114121
:1013300000F02AFF0246FB681344FB602CE00B23FD
:101340007B817B6803F1180007F10A020223182150
:1013500000F01AFF0246FB681344FB607B6803F150
:10136000180007F10A0202231A2100F00DFF0246BD
:10137000FB681344FB604FF4C0537B817B6803F12F
:10138000180007F10A0202234FF4826100F0FCFE0C
:101390000246FB681344FB608A220021786800F053
:1013A000E5F80246FB681344FB60FB68002B02D0A3
:1013B0004FF0FF33FB60FB6818461037BD4680BD19
:1013C00080B582B000AF78600021786800F061F8E5
:1013D000034618460837BD4680BD80B584B000AFCF
:1013E000786039607B681B6898477B68183307F121
:1013F0000A021146184600F000FFF8607B891A4681
:101400003B681A60FB6818461037BD4680BD80B542
:1014100082B000AF78600021786800F0D3F903460D
:1014200018460837BD4680BD80B584B000AF7860EF
:1014300001237B810121786800F0C4F90346002B69
:1014400003D04FF0FF33FB6011E07B6803F118001D
:1014500007F10A020223022100F096FE0346002B48
:1014600003D04FF0FF33FB6001E00023FB60FB681B
:1014700018461037BD4680BD80B582B000AF786099
:101480000021786800F09EF9034618460837BD46EB
:1014900080BD80B584B000AF786039600121786884
:1014A00000F090F9F8603B68012B54D04FF40073C2
:1014B0007B817B6803F1180007F10A0202234FF4D5
:1014C000846100F061FE0246FB681344FB607B68A8
:1014D00003F1180007F10A02022340F2224100F052
:1014E00053FE0246FB681344FB6000237B817B684C
:1014F00003F1180007F10A0202232D2100F044FE37
:101500000246FB681344FB607B6803F1180007F197
:101510000A0202232E2100F037FE0246FB68134424
:10152000FB607B6803F1180007F10A020223052122
:1015300000F02AFE0246FB681344FB607B6803F15F
:10154000180007F10A020223002100F01DFE0246E6
:10155000FB681344FB60FB68002B02D04FF0FF33A5
:10156000FB60FB6818461037BD4680BD80B586B06D
:1015700000AFF860B9601346FB71BB68012B40F007
:101580008980FB793E2B3CD90021F86800F01AF9DC
:10159000786140F27F137B82FB6803F1180007F14A
:1015A000120202231C2100F0EFFD02467B69134466
:1015B0007B61FB6803F1180007F1120202231D2171
:1015C00000F0E2FD02467B6913447B61FB6803F196
:1015D000180007F112020223262100F0D5FD024671
:1015E0007B6913447B61FB6803F1180007F1120269
:1015F0000223272100F0C8FD02467B6913447B616A
:1016000083E0FB79002B05D10121F86800F0DAF8BE
:1016100078617AE00021F86800F0D4F87861FB790D
:101620009BB243F4A0739BB27B82FB6803F118006A
:1016300007F1120202231C2100F0A6FD02467B697D
:1016400013447B61FB6803F1180007F112020223C7
:101650001D2100F099FD02467B6913447B61FB6804
:1016600003F1180007F112020223262100F08CFD7D
:1016700002467B6913447B61FB6803F1180007F1A4
:1016800012020223272100F07FFD02467B691344EA
:101690007B613AE0FB799BB243F480739BB27B821F
:1016A000FB6803F1180007F1120202234FF4806176
:1016B00000F06AFD7861FB6803F1180007F112027F
:1016C000022340F2014100F05FFD02467B691344B2
:1016D0007B61FB6803F1180007F11202022340F25C
:1016E000044100F051FD02467B6913447B61FB68B5
:1016F00003F1180007F11202022340F2054100F045
:1017000043FD02467B6913447B617B69002B02D059
:101710004FF0FF337B617B6918461837BD4680BDAB
:1017200080B586B000AFF860B9607A6000237B6155
:10173000BB68012B1ED1FB68183307F1120211465A
:10174000184600F06AFD0346002B03D04FF0FF332C
:101750007B612DE07B8A1A46642302FB03F3174A60
:1017600082FB03121A445211DB17D31ADAB27B68D8
:101770001A701DE0FB68183307F112021146184673
:1017800000F063FE0346002B03D04FF0FF337B6174
:101790000EE07B8A1A46642302FB03F3084A82FBAD
:1017A00003121A44D211DB17D31ADAB27B681A700B
:1017B0007B6918461837BD4680BD00BF832008826C
:1017C0003BC71A8980B584B000AF786039603B6848
:1017D000012B1CD14FF400737B817B6803F118004F
:1017E00007F10A0202234FF4846100F0CDFCF86097
:1017F0007B6803F1180007F10A02022340F222413C
:1018000000F0C2FC0246FB681344FB601AE01023A0
:101810007B817B6803F1180007F10A0202234FF471
:10182000846100F0B1FCF8607B6803F1180007F1F7
:101830000A02022340F2224100F0A6FC0246FB68A5
:101840001344FB60FB68002B02D04FF0FF33FB60BA
:10185000FB6818461037BD4680BD80B584B000AF28
:10186000786039603B68022B03D03B68042B40F062
:101870009C8000237B817B6803F1180007F10A023A
:101880000223012100F080FCF86040F203337B81E9
:101890007B6803F1180007F10A020223052100F01A
:1018A00073FC0246FB681344FB6001237B817B6869
:1018B00003F1180007F10A02022340F2016100F06F
:1018C00063FC0246FB681344FB607B6803F118006D
:1018D00007F10A02022340F2026100F055FC0246C1
:1018E000FB681344FB6000237B817B6803F11800D5
:1018F00007F10A02022340F2046100F045FC0246AF
:10190000FB681344FB607B6803F1180007F10A02CF
:10191000022340F2056100F037FC0246FB681344E5
:10192000FB604FF480737B817B6803F1180007F143
:101930000A0202232D2100F027FC0246FB68134413
:10194000FB607B6803F1180007F10A0202232E21D5
:1019500000F01AFC0246FB681344FB604FF401439D
:101960007B817B6803F1180007F10A0202234FF420
:10197000887100F009FC0246FB681344FB604FF4D9
:101980009671786800F088FB00237B817B6803F107
:10199000180007F10A0202234FF4846100F0F4FBFF
:1019A0000246FB681344FB6065E13B68012B49D1AB
:1019B00040F60C437B817B6803F1180007F10A02B3
:1019C0000223052100F0E0FBF86000237B817B68A7
:1019D00003F1180007F10A02022340F2016100F04E
:1019E000D3FB0246FB681344FB607B6803F11800DD
:1019F00007F10A02022340F2026100F0C5FB024631
:101A0000FB681344FB6002237B817B6803F11800B1
:101A100007F10A02022340F2046100F0B5FB02461E
:101A2000FB681344FB607B6803F1180007F10A02AE
:101A3000022340F2056100F0A7FB0246FB68134455
:101A4000FB603BE040F60F737B817B6803F118007D
:101A500007F10A020223052100F096FBF86001233A
:101A60007B817B6803F1180007F10A02022340F230
:101A7000016100F089FB0246FB681344FB607B6850
:101A800003F1180007F10A02022340F2026100F09C
:101A90007BFB0246FB681344FB6002237B817B686F
:101AA00003F1180007F10A02022340F2046100F07A
:101AB0006BFB0246FB681344FB6000BF4FF44073AE
:101AC0007B817B6803F1180007F10A0202230321DE
:101AD00000F05AFB0246FB681344FB6000237B8145
:101AE0007B6803F1180007F10A020223222100F0AB
:101AF0004BFB0246FB681344FB607B6803F1180054
:101B000007F10A020223232100F03EFB0246FB6894
:101B10001344FB604FF440737B817B6803F1180032
:101B200007F10A020223362100F02EFB0246FB6871
:101B30001344FB6043F203037B817B6803F11800CD
:101B400007F10A020223012100F01EFB0246FB6896
:101B50001344FB6005237B817B6803F1180007F1C8
:101B60000A020223512100F00FFB0246FB681344D6
:101B7000FB6043F203337B817B6803F1180007F1BC
:101B80000A020223012100F0FFFA0246FB68134417
:101B9000FB6022237B817B6803F1180007F10A02B6
:101BA0000223602100F0F0FA0246FB681344FB6058
:101BB00049F625737B817B6803F1180007F10A025F
:101BC00002234C2100F0E0FA0246FB681344FB605C
:101BD0000F21786800F060FA01237B817B6803F1B4
:101BE000180007F10A0202232D2100F0CDFA024667
:101BF000FB681344FB607B6803F1180007F10A02DD
:101C000002232E2100F0C0FA0246FB681344FB6059
:101C10004FF44C737B817B6803F1180007F10A02D3
:101C20000223032100F0B0FA0246FB681344FB6074
:101C300033237B817B6803F1180007F10A0202233A
:101C4000542100F0A1FA0246FB681344FB6040F205
:101C50000111786800F020FAEE237B817B6803F1A4
:101C6000180007F10A020223602100F08DFA0246F3
:101C7000FB681344FB60FB68002B02D04FF0FF337E
:101C8000FB60FB6818461037BD4680BD80B584B048
:101C900000AF786039600023FB607B6818333A68D6
:101CA00092B21146184600F04CFB0346002B02D0BE
:101CB0004FF0FF33FB60FB6818461037BD4680BD10
:101CC00080B584B000AF786039600023FB600023EA
:101CD0007B817B68183307F10A021146184600F031
:101CE00061FB0346002B03D04FF0FF33FB6021E084
:101CF0007B89032B1AD801A252F823F00D1D00088E
:101D0000151D00081D1D0008251D00083B68002248
:101D10001A600FE03B6801221A600BE03B68022268
:101D20001A6007E03B6803221A6003E03B68002268
:101D30001A6000BFFB6818461037BD4680BD00BF63
:101D400080B584B000AF786039600023FB607B68A9
:101D500018333A6892B21146184600F09FFA0346CB
:101D6000002B02D04FF0FF33FB60FB6818461037A2
:101D7000BD4680BD80B584B000AF78603960002377
:101D8000FB607B68183307F10A021146184600F021
:101D9000B6FA0346002B03D04FF0FF33FB6003E09D
:101DA0007B891A463B681A60FB6818461037BD46A7
:101DB00080BD000080B584B000AF786039603B68BA
:101DC000554A93425DD03B68534A934200F291805A
:101DD0003B684AF6444293427DD03B684AF644420F
:101DE000934200F286803B68B3F5FA4F3BD03B68E4
:101DF000B3F5FA4F7DD83B6845F2226293425CD03E
:101E00003B6845F22262934273D83B68B3F57A5F30
:101E10001BD03B68B3F57A5F6BD83B68B3F5FA5FCC
:101E200005D03B6842F61132934238D061E003237B
:101E30007B817B6803F1180007F10A0202234FF44B
:101E4000047100F0A1F9F86061E033237B817B68C5
:101E500003F1180007F10A0202234FF4047100F0A5
:101E600093F9F86053E063237B817B6803F11800EA
:101E700007F10A0202234FF4047100F085F9F860BB
:101E800045E0A3237B817B6803F1180007F10A0278
:101E900002234FF4047100F077F9F86037E0132360
:101EA0007B817B6803F1180007F10A0202234FF4DB
:101EB000047100F069F9F86029E043237B817B68B5
:101EC00003F1180007F10A0202234FF4047100F035
:101ED0005BF9F8601BE073237B817B6803F11800DA
:101EE00007F10A0202234FF4047100F04DF9F86083
:101EF0000DE083237B817B6803F1180007F10A0260
:101F000002234FF4047100F03FF9F86000BFFB6852
:101F100018461037BD4680BD0077010080B584B0FB
:101F200000AF786039600023FB6000237B817B6811
:101F3000183307F10A021146184600F08DF90346DE
:101F4000002B03D04FF0FF33FB6043E07B890A2B6B
:101F50003FD801A252F823F0851F00088F1F000808
:101F6000D31F0008991F0008A31F0008D31F0008F3
:101F7000AD1F0008B71F0008C11F0008D31F0008CD
:101F8000CB1F00083B684FF4FA521A6022E03B680E
:101F900042F611321A601DE03B684FF47A521A6023
:101FA00018E03B6845F222621A6013E03B684FF488
:101FB000FA421A600EE03B684AF644421A6009E0B1
:101FC0003B684BF680321A6004E03B68044A1A60B2
:101FD00000E000BFFB6818461037BD4680BD00BF5B
:101FE0000077010080B584B000AF78600023FB600B
:101FF0007B6818330021184600F0EEF80346002BEA
:1020000002D04FF0FF33FB60FB6818461037BD4627
:1020100080BD000080B584B000AF786039607B6817
:10202000002B03D14FF0FF33FB602CE03B681A68B4
:102030007B681A603B685A687B685A603B681A89FB
:102040007B681A813B68DA687B68DA603B681A69EA
:102050007B681A613B685A697B685A617B680C4AE5
:10206000DA617B680B4A9A617B687A681A627B68DE
:102070001B68002B04D07B681B689847F86002E05F
:102080004FF0FF33FB60FB6818461037BD4680BD3C
:10209000CD200008FF20000880B584B000AF786034
:1020A00039607B685B6998470346FB6000BF7B68CB
:1020B0005B69984703461A46FB68D31A3A689A4206
:1020C000F5D8002318461037BD4680BD90B587B0BF
:1020D00000AFF8607A601A460B467B8113463B815D
:1020E000FB687B617B691C697B6918893B897989FD
:1020F0007A68A047034618461C37BD4690BD90B588
:1021000087B000AFF8607A601A460B467B811346B1
:102110003B81FB687B617B69DC687B6918893B8953
:1021200079897A68A047034618461C37BD4690BD9A
:1021300090B587B000AFF8607A601A460B467B8195
:1021400013463B81FB685C68FB6898683B8979892A
:102150007A68A04778617B69002B10DB7B681B885D
:102160001B0A7B827B681B881BB21B021AB2B7F961
:10217000123013431BB27B827B687A8A1A807B6998
:1021800018461C37BD4690BD90B587B000AFF860CB
:102190007A601A460B467B8113463B817B681B881D
:1021A0001B0A9BB2FB827B681B881BB21B021AB204
:1021B000FB8A1BB213431BB29BB2FB82FB681C68F9
:1021C000FB6898683B8907F116027989A0470346A6
:1021D00018461C37BD4690BD80B582B000AF786010
:1021E0000B467B80BA1C022300217868FFF7CCFFE6
:1021F000034618460837BD4680BD80B582B000AFA3
:102200007860396002233A6800217868FFF790FF10
:10221000034618460837BD4680BD80B584B000AF80
:102220007860396002233A681C217868FFF780FFE4
:10223000F860FB68002B0AD13B681B8803F03F0362
:102240009AB23B681A803B681A883B681A80FB6820
:1022500018461037BD4680BD80B584B000AF7860A9
:10226000396002233A684FF404717868FFF760FF21
:10227000F860FB68002B0CD13B681B8803F0F0036F
:102280009AB23B681A803B681B881B099AB23B686C
:102290001A80FB6818461037BD4680BD80B584B0F3
:1022A00000AF78600B467B8000237B8107F10A0238
:1022B00002234FF440717868FFF73AFFF860FB683B
:1022C000002B17D17B8923F018039BB27B81B7F9D0
:1022D0000230DB001AB27B891BB213431BB29BB2E4
:1022E0007B8107F10A0202234FF440717868FFF7FF
:1022F0004BFFF860FB6818461037BD4680BD80B5BF
:1023000084B000AF7860396002233A684FF44071BE
:102310007868FFF70DFFF860FB68002B0CD13B6875
:102320001B8803F018039AB23B681A803B681B882D
:10233000DB089AB23B681A80FB6818461037BD4626
:1023400080BD80B584B000AF78600B467B800023F1
:102350007B8107F10A0202234FF440717868FFF78E
:10236000E7FEF860FB68002B17D17B8923F0600340
:102370009BB27B81B7F902305B011AB27B891BB239
:1023800013431BB29BB27B8107F10A0202234FF475
:1023900040717868FFF7F8FEF860FB681846103760
:1023A000BD4680BD80B584B000AF7860396002233F
:1023B0003A684FF440717868FFF7BAFEF860FB683E
:1023C000002B0CD13B681B8803F060039AB23B687A
:1023D0001A803B681B885B099AB23B681A80FB68CD
:1023E00018461037BD4680BD80B584B000AF786018
:1023F0000B467B8000237B8107F10A0202234FF406
:1024000040717868FFF794FEF860FB68002B17D1E5
:102410007B8923F480439BB27B81B7F902309B0315
:102420001AB27B891BB213431BB29BB27B8107F1AB
:102430000A0202234FF440717868FFF7A5FEF860A6
:10244000FB6818461037BD4680BD80B584B000AF2C
:102450007860396002233A684FF480617868FFF74A
:1024600067FEF860FB68002B09D13B681B88DBB274
:102470009AB23B681A803B681A883B681A80FB68EE
:1024800018461037BD4680BD80B58AB000AF034600
:10249000FB7100237B62FB79002B0FD1264BD3F815
:1024A000E030254A43F00403C2F8E030224BD3F871
:1024B000E03003F00403FB60FB6815E0FB79012BBF
:1024C0000FD11D4BD3F8E0301B4A43F00403C2F890
:1024D000E030194BD3F8E03003F00403BB60BB6875
:1024E00002E06FF001037B6201237B610123BB618A
:1024F0000223FB61FB79114A52F823303B61FB79DF
:102500000F4A52F8233007F110021146184608F01E
:10251000C3F9FB790A4A52F82300FB79074A52F8BB
:1025200023309BB20122194608F060FC7B6A1846F2
:102530002837BD4680BD00BF00440258985B0108A3
:102540004C04002480B588B000AF03460A46FB71F6
:102550001346BB712D4BD3F8E0302C4A43F00403F3
:10256000C2F8E030294BD3F8E03003F00403BB603D
:10257000BB684FF40053FB6002237B610223BB6105
:10258000BB79002B0CD100233B61FB79204A52F828
:10259000233007F10C021146184608F07DF930E0AF
:1025A0001C4B3B61FB791A4A52F8233007F10C02AD
:1025B0001146184608F070F9FB79DB00164A1A44F8
:1025C000FB79164951F823301946104608F01FF9D7
:1025D000FB79DB00104A9818FB79114A52F8233036
:1025E0001A46002108F0F4F82820FB790D4A52F829
:1025F00023300022194604F072FF2823184604F005
:1026000088FF002318462037BD4680BD004402588D
:102610005404002400001111C00E0024A05B010826
:10262000580400245C04002480B582B000AF034647
:10263000FB71FB79DB00044A1344184608F0FCF8F0
:1026400000BF0837BD4680BDC00E002480B500AF76
:1026500000200FF075F900BF80BD80B584B000AFD9
:10266000786039600023FB737B681B681A687B689D
:102670001B6822F480321A603B68DA687B68DA6291
:102680003B681A687B681A623B685A687B685A60C4
:102690007B6800229A617B6800225A643B689A68D2
:1026A0007B689A647B680022DA643B681A697B68FD
:1026B0001A653B685A697B689A603B689A697B68CF
:1026C0005A617B680122DA613B68DA697B68DA600B
:1026D0007B6800221A637B6800225A637B680022B1
:1026E0005A627B684FF000621A617B6800229A622E
:1026F0007B68002283F838203B681A6A7B685A6539
:102700003B685A6A7B689A657B684FF48032DA6569
:102710007B6800221A667B684FF480225A667B68C9
:1027200000229A663B689B68182B03D03B689B6825
:10273000202B03D17B688022DA6602E07B6840228E
:10274000DA667B6804221A673B689A6A7B685A6774
:1027500078680DF0F7F90346002B01D00123FB73D5
:102760007B681B681A687B681B6842F480321A60B9
:10277000FB7B18461037BD4680BD000080B586B093
:1027800000AFF860B9607A6000237B61FB68002BC2
:102790000FD12D49FA681346DB0013449B000B440C
:1027A0000C331B68DB087A68B2FBF3F3B3F5803FA8
:1027B00003D36FF001037B6140E02349FA681346BD
:1027C000DB0013449B000B441C331B68022B03D01B
:1027D0006FF002037B6131E01B49FA681346DB00AE
:1027E00013449B000B440C331B68DB087A68B2FB74
:1027F000F3F39BB21A46B96814480DF0C1FB0346C7
:10280000002B03D06FF003037B6117E0104B1B68B4
:10281000DB68104A1268104698470346002B03DA1B
:102820006FF004037B6109E00749FA681346DB0097
:1028300013449B000B441C3301221A607B69184629
:102840001837BD4680BD00BF640F0024CC0E0024A5
:1028500078130024C80E002480B582B000AF7860E1
:10286000044BD3F88030184606F0BEF900BF083795
:10287000BD4680BDCC0E002480B582B000AF78602C
:10288000002000F025F800BF0837BD4680BD80B5A8
:1028900082B000AF7860002000F024F800BF083755
:1028A000BD4680BD80B582B000AF78607B681B6894
:1028B000064A934203D1002000F01EF802E00020F7
:1028C00002F014F900BF0837BD4680BD245801400E
:1028D00080B483B000AF786000BF0C37BD465DF8B0
:1028E000047B704780B483B000AF786000BF0C37C2
:1028F000BD465DF8047B704780B483B000AF78605C
:1029000000BF0C37BD465DF8047B704780B588B0CA
:1029100000AF0023FB613423BB81204B7B60204B45
:10292000BB60204B7B61204B3B61204BBB613B1D5F
:1029300019461F48FFF76EFB0346002B03D06FF0CC
:102940000703FB6124E01A48FFF74CFB0346002B0A
:1029500003D06FF00403FB611AE03B4619461448AC
:10296000FEF73BFD0346002B03D06FF00403FB6131
:102970000EE03B6848F69412934203D06FF00603D2
:10298000FB6105E00B4B0C4A1A600C4B084A1A60BD
:10299000FB6918462037BD4680BD00BF9D5000082A
:1029A000115100089D52000841520008F9520008D8
:1029B000245600247813002400040024C80E0024A8
:1029C00080B596B000AF7860614BD3F8F030604AC4
:1029D00043F48003C2F8F0305D4BD3F8F03003F4D9
:1029E00080033B643B6C5A4BD3F8E030584A43F0C9
:1029F0002003C2F8E030564BD3F8E03003F0200358
:102A0000FB63FB6B524BD3F8E030514A43F0200399
:102A1000C2F8E0304E4BD3F8E03003F02003BB6344
:102A2000BB6B4B4BD3F8E030494A43F02003C2F86C
:102A3000E030474BD3F8E03003F020037B637B6B3F
:102A4000434BD3F8E030424A43F02003C2F8E03071
:102A50003F4BD3F8E03003F020033B633B6B4FF474
:102A600000737B640223BB640023FB6403233B6588
:102A700006237B6507F144031946364807F00CFF2F
:102A80004FF480737B6406237B6507F1440319468A
:102A9000304807F001FF40237B6406237B6507F184
:102AA000440319462B4807F0F7FE7B681B682A4A47
:102AB00093421ED0294B93F89130DBB2012B18D0F2
:102AC000234BD3F8E030224A43F02003C2F8E03031
:102AD0001F4BD3F8E03003F02003FB62FB6A802336
:102AE0007B6406237B6507F144031946194807F008
:102AF000D3FE7B681B681A4A93426BD1144BD3F800
:102B0000D830134A43F00203C2F8D830104BD3F840
:102B1000D83003F00203BB62BB6A124B58225A60E2
:102B2000104B40229A600F4B0022DA600D4B4FF49D
:102B300080621A610C4BDB68102B17D1094B4FF4E4
:102B400000625A61074B4FF400529A6116E000BFD1
:102B5000004402580014025804540058B8110024CC
:102B6000245801404C560024640F0024534B4FF46A
:102B700080525A61514B4FF480429A614F4B4FF44F
:102B80008072DA614D4B4FF400321A624B4B0422D3
:102B90005A624A4B03229A62484B0022DA62474B40
:102BA00000221A63454B464A1A607B68434AC3F8C1
:102BB0008020424A7B689363404805F0F5FB3F481C
:102BC00005F09AF800220E21452004F088FC4520EB
:102BD00004F09FFC7B681B683A4A934240F09B805C
:102BE000394BD3F8F030384A43F48003C2F8F03060
:102BF000354BD3F8F03003F480037B627B6A324BB1
:102C0000D3F8E030304A43F01003C2F8E0302E4BE6
:102C1000D3F8E03003F010033B623B6A40237B644F
:102C20000223BB640023FB6402233B6506237B6510
:102C300007F144031946254807F02EFE224BD3F82E
:102C4000D830214A43F00203C2F8D8301E4BD3F8E3
:102C5000D83003F00203FB61FB691D4B1D4A1A606B
:102C60001B4B57225A601A4B4FF48072DA61184B93
:102C70004FF400321A62164B00229A60144B002265
:102C8000DA60134B4FF480621A61114B00225A62D2
:102C90000F4B03229A620E4B0022DA620C4B002289
:102CA0001A630D4BDB68102B18D1094B4FF40062EF
:102CB0005A61074B4FF400529A6117E04C560024BA
:102CC000A004024004580140004402580010025879
:102CD000C456002470040240E81200245F4B4FF4F5
:102CE00080525A615D4B4FF480429A617B685B4A27
:102CF000C3F88420594A7B689363584805F054FB15
:102D0000564804F0F9FF00220F213C2004F0E7FBB5
:102D10003C2004F0FEFB7B681B68514A934240F064
:102D20009980504BD3F8F4304E4A43F40013C2F864
:102D3000F4304C4BD3F8F43003F40013BB61BB699F
:102D4000484BD3F8E030474A43F01003C2F8E03074
:102D5000444BD3F8E03003F010037B617B6901231F
:102D6000FB6402233B6510237B640A237B6507F128
:102D7000440319463C4807F08FFD3A4BD3F8E03046
:102D8000384A43F01003C2F8E030364BD3F8E03055
:102D900003F010033B613B690223BB640023FB6427
:102DA00002233B6520237B640A237B6507F14403F0
:102DB00019462D4807F070FD2A4BD3F8E030294A18
:102DC00043F40013C2F8E030264BD3F8E03003F4AC
:102DD0000013FB60FB68214B0F225A601F4B00223F
:102DE0009A601E4B0022DA601C4B4FF480621A611D
:102DF0001A4B00225A61194B00229A61174B4FF46B
:102E00008072DA61154B4FF400321A62134B0022C4
:102E10005A62124B03229A62104B0022DA620F4B65
:102E200000221A630D4B114A1A607B680B4AC3F8E3
:102E300084200A4A7B689363084805F0B5FA07487E
:102E400004F05AFF00220F21822004F048FB822068
:102E500004F05FFB00BF5837BD4680BDC456002458
:102E60000454005800440258001002581C540258E0
:102E700090B5A9B000AF786039600023C7F89830EA
:102E80007B68022B05D96FF00103C7F8983000F07A
:102E90000BBC3B6819689A487A6813465B00134478
:102EA0001B010344043319603B68D96894487A686D
:102EB00013465B0013441B010344103319603B6845
:102EC00059688F487A6813465B0013441B0103441A
:102ED000083319603B68996889487A6813465B0033
:102EE00013441B0103440C3319603B68196984487F
:102EF0007A6813465B0013441B01034420331960B6
:102F00007F497A6813465B0013441B010B4424334A
:102F100000221A607B68002B40F0CC807B689822EE
:102F200002FB03F3774A1A443B685B681946104674
:102F300002F060F80346002B04D06FF00803C7F8D6
:102F40009830A7E36F4A7B68982101FB03F3134491
:102F50006D4A1A606D4B6E4A1A607B68982202FBBC
:102F600003F3684A13441846FFF72AFDD7F8983050
:102F7000002B40F08F8362497A6813465B0013444C
:102F80001B010B4408331B68BB600323FB60002359
:102F9000BB613B68DB68012B02D14FF4805300E03A
:102FA00000237B6180233B618023BB624023FB6263
:102FB0004FF400533B620123FB6100237B62032338
:102FC0003B637B68982202FB03F34E4A134407F1EC
:102FD00008021146184600F0E6FD0346002B04D017
:102FE0006FF00303C7F8983010E00023FB60002364
:102FF000FB6107F1080319464448FFF72EFB03461F
:10300000002B03D06FF00303C7F89830D7F898303F
:10301000002B40F03F833F4BDB69002B01D10023A5
:1030200000E00223C7F888303B685B68C7F88C3043
:103030003B689B68202B01D1032300E00023C7F8E5
:1030400090303B681B68002B01D1032300E0022372
:10305000C7F884303B681B69632B0CD83B681A693E
:1030600013461B019B1A1B019B1A2B4AA2FB03232D
:103070005B09DBB200E0EF23C7F89430274B1B68F5
:103080001B68274A126807F18401104698470346D7
:10309000002B04DA6FF00403C7F89830FAE21849FD
:1030A0007A6813465B0013441B010B44243302224D
:1030B0001A60EFE27B68012B40F0958010497A6836
:1030C00013465B0013441B010B4404331B68102B95
:1030D00004D06FF00103C7F89830DBE27B689822D8
:1030E00002FB03F3074A1A443B685B681946104623
:1030F00001F090FF0346002B14D06FF00803D5E2D7
:10310000E8120024B811002404580140CC0E002419
:1031100024580140640F00241F85EB5178130024CC
:10312000C80E0024A64A7B68982101FB03F31344D0
:10313000A44A1A607B68982202FB03F3A04A134456
:103140001846FFF73DFC00237B6140233B612023B1
:10315000BB620123FB6200233B6204233B639A4969
:103160007A6813465B0013441B010B4408331B6849
:103170001B01BB600123FB600023BB610023FB61DB
:1031800000237B627B68982202FB03F38C4A134482
:1031900007F108021146184600F08DFD0346002B8A
:1031A00002D06FF0030381E23B68596886487A6871
:1031B00013465B0013441B01034410331868824C10
:1031C0007A6813465B0013441B01234410331B68C9
:1031D0000246786800F0F4FD0346002B00F05A82A6
:1031E0004FF0FF3362E2794B07F174040FCB84E8B0
:1031F0000F00774B07F164040FCB84E80F00754B89
:1032000007F154040FCB84E80F00734B07F144041B
:103210000FCB84E80F00714B07F134040FCB84E827
:103220000F003B685B6819466D4800F015FC0346CB
:10323000002B03D06FF00803C7F89830D7F8983008
:10324000002B40F02782674801F0FEFC664801F041
:1032500057FCD7F89830002B40F01C820023C7F8A9
:103260009C3010E2D7F89C309B00A0333B4453F8CD
:103270002C3CBB60D7F89C309B00A0333B4453F8F8
:103280003C3CBB61D7F89C309B00A0333B4453F8D7
:103290004C3CFB61D7F89C309B00A0333B4453F877
:1032A0005C3C3B62D7F89C309B00A0333B4453F816
:1032B0006C3C7B620023FB60D7F89C30002B12D063
:1032C000D7F89C30032B0ED83F497A6813465B0031
:1032D00013441B010B4404331B6803F01003002B41
:1032E00001D00123FB6038497A6813465B00134420
:1032F0001B010B4408331B68B3F5FA5F76D03249E3
:103300007A6813465B0013441B010B4408331B68A7
:1033100042F61132934250D02B497A6813465B0033
:1033200013441B010B4408331B68B3F57A5F41D08B
:1033300025497A6813465B0013441B010B4408338C
:103340001B6845F22262934231D01F497A681346C6
:103350005B0013441B010B4408331B68B3F5FA4FA1
:1033600022D019497A6813465B0013441B010B44B1
:1033700008331B684AF64442934212D012497A68D5
:1033800013465B0013441B010B4408331B684BF6C8
:103390008032934202D14FF0004329E04FF02043A6
:1033A00026E04FF0C04323E04FF0004320E04FF011
:1033B000C0431DE04FF0C0431AE04FF0C04317E098
:1033C000B811002404540058E8120024505A01088F
:1033D000605A0108705A0108805A0108905A010881
:1033E000D8100024DC0F0024101100244FF0C0433B
:1033F0003B61B0497A6813465B0013441B010B44E0
:1034000008331B68B3F5FA5F5AD0AA497A681346A5
:103410005B0013441B010B4408331B6842F6113256
:1034200093424AD0A3497A6813465B0013441B01B8
:103430000B4408331B68B3F57A5F3CD09D497A682A
:1034400013465B0013441B010B4408331B6845F211
:10345000226293422DD097497A6813465B00134449
:103460001B010B4408331B68B3F5FA4F1FD0914979
:103470007A6813465B0013441B010B4408331B6836
:103480004AF64442934210D08A497A6813465B0058
:1034900013441B010B4408331B684BF680329342E4
:1034A00001D120230EE010230CE040230AE040234A
:1034B00008E0802306E0802304E04FF4807301E0FD
:1034C0004FF480737B617B497A6813465B00134439
:1034D0001B010B4408331B68B3F5FA5F4AD07549EA
:1034E0007A6813465B0013441B010B4408331B68C6
:1034F00042F6113293423BD06E497A6813465B0024
:1035000013441B010B4408331B68B3F57A5F2DD0BD
:1035100068497A6813465B0013441B010B44083367
:103520001B6845F2226293421ED062497A681346B4
:103530005B0013441B010B4408331B68B3F5FA4FBF
:1035400010D05C497A6813465B0013441B010B449E
:1035500008331B684AF64442934201D104230AE02F
:10356000202308E0182306E0042304E0182302E0E7
:10357000042300E01823BB624E497A6813465B00BF
:1035800013441B010B4408331B68B3F5FA5F4AD0A0
:1035900048497A6813465B0013441B010B44083307
:1035A0001B6842F6113293423BD042497A68134677
:1035B0005B0013441B010B4408331B68B3F57A5FAF
:1035C0002DD03C497A6813465B0013441B010B4421
:1035D00008331B6845F2226293421ED035497A684F
:1035E00013465B0013441B010B4408331B68B3F5FF
:1035F000FA4F10D02F497A6813465B0013441B0121
:103600000B4408331B684AF64442934201D100231D
:103610000AE0022308E0062306E0032304E0032374
:1036200002E0062300E00523FB623B681A68D7F836
:103630009C3022FA03F303F01003002B1AD0D7F8C2
:103640009C30542202FB03F31B4A9818D7F89C20A5
:103650001346DB009B1ADB00184A134407F10802EB
:10366000194600F021FA0346002B03D06FF0030344
:10367000C7F89830D7F89830002B0AD1D7F89C308B
:103680000133C7F89C30D7F89C30032B7FF6EAADA6
:1036900000E000BF07497A6813465B0013441B0132
:1036A0000B44243302221A60D7F898301846A43706
:1036B000BD4690BDE8120024880F0024D8100024D5
:1036C00080B58AB000AFF860B9607A603B600023D3
:1036D0007B62FB68022B02D8BB68022B03D96FF018
:1036E00001037B62A2E17B6819685348FA681346BC
:1036F0005B0013441B010344043319607B68D968E1
:103700004D48FA6813465B0013441B010344103311
:1037100019607B6859684848FA6813465B0013448F
:103720001B010344083319607B6899684248FA68B2
:1037300013465B0013441B0103440C3319607B6880
:1037400019693D48FA6813465B0013441B010344A2
:10375000203319603849FA6813465B0013441B0193
:103760000B44243300221A603B6819683348BA6856
:103770001346DB0013449B000344043319603B6889
:10378000D9682E48BA681346DB0013449B000344F3
:10379000143319603B6859682848BA681346DB003F
:1037A00013449B000344083319603B68996823481D
:1037B000BA681346DB0013449B0003440C331960C2
:1037C0003B6819691D48BA681346DB0013449B0027
:1037D0000344103319601949BA681346DB001344D7
:1037E0009B000B441C3300221A60134B5B6A002BB6
:1037F00007D1FFF78BF80346002B02D06FF00403CC
:103800007B62BB68002B40F00581FB68002B40F019
:103810000181FB68982202FB03F3094A1A447B6882
:103820005B681946104601F0E5FB0346002B09D002
:103830006FF008037B62F8E0E8120024640F0024B4
:10384000B81100247C4AFB68982101FB03F3134460
:103850007A4A1A607A4B7B4A1A60FB68982202FB0C
:1038600003F3754A13441846FFF7AAF87448FFF7A4
:10387000A7F87B6A002B40F0D8806F4AFB6898213C
:1038800001FB03F31344913300221A706A4AFB6868
:10389000982101FB03F31344684A1A60664AFB68E7
:1038A000982101FB03F31344043303221A60624A94
:1038B000FB68982101FB03F31344083301221A60CB
:1038C0005D4AFB68982101FB03F313441433002283
:1038D0001A60594AFB68982101FB03F313441C3317
:1038E00000221A60544AFB68982101FB03F3134439
:1038F0000C3300221A60504AFB68982101FB03F345
:1039000013442C3300221A604B4AFB68982101FBB8
:1039100003F31344303300221A60474AFB689821AE
:1039200001FB03F31344343300221A60FB6898222E
:1039300002FB03F3404A98180223002200210CF0F6
:10394000CFF83F4B002283F891203D4B3D4A1A604F
:103950003B4B00225A603A4B00229A60384B4FF49E
:1039600000525A61364B00229A61354B0022DA61CF
:103970003B685B68324A1362314B0022DA60304B9D
:103980000022DA622E4B00221A632D4B00225A636A
:103990000223002200212A480CF0A2F8284B1B68C1
:1039A0001A68274B1B6842F480321A607B6A002B2E
:1039B0003BD102237B613B685B68BB610023FB61F9
:1039C00003233B61204B1B6A3B62204B1B681B6837
:1039D0001F4A126807F11001104698470346002B52
:1039E00003DA6FF004037B621FE01749FA6813469D
:1039F0005B0013441B010B44243302221A60154957
:103A0000BA681346DB0013449B000B441C330222AC
:103A10001A600AE0BB68002B08D1FB68012B05D1B6
:103A20007968F868FFF724FA00E000BF7B6A18465F
:103A30002837BD4680BD00BFB8110024045801409E
:103A4000CC0E002424580140E812002478130024EE
:103A5000C80E0024640F002480B5B0B000AF7860B9
:103A60003960002387F8BF3007F1080318460AF0D1
:103A70004FFD0A4BDB69002B0AD1094B5B6A002B17
:103A800006D13968074801F0B5FA034687F8BF3018
:103A900097F8BF301846C037BD4680BD640F00247C
:103AA000E8120024B811002480B584B000AFF8609B
:103AB000B9607A607B681A68FB681A607B685A682C
:103AC000FB685A60FB6801221A72FB6801225A7275
:103AD000FB680022DA60FB6800221A74FB6800228F
:103AE0005A74FB684FF400725A61FB684FF4C0428D
:103AF0009A617B689A68FB68DA617B68DA68FB68C0
:103B00001A62FB6801225A62F86803F06BFE0346F2
:103B1000002B01D0012342E07B681A69BB681A6060
:103B2000BB6801221A71BB684FF080429A607B68C3
:103B30001A6ABB68DA60BB6800221A61BB6800229F
:103B40005A61BB6804221A62BB684FF480025A6251
:103B5000BB680A229A62BB680022DA627B685A6AF2
:103B6000BB681A637B685A69BB689A617B689A690B
:103B7000BB68DA61B86803F063FD0346002B01D02F
:103B800001230CE07B68DB6901221946F86803F029
:103B90000FFF0346002B01D0012300E0002318464D
:103BA0001037BD4680BD80B584B000AF7860396005
:103BB0000023FB737B681B681A687B681B6822F410
:103BC00080321A603B681A687B681A623B68DA6860
:103BD0007B68DA623B685A687B685A607B680022BF
:103BE0009A617B6800225A643B689A687B689A6491
:103BF0007B680022DA643B681A697B681A653B6857
:103C00005A697B689A603B689A697B685A617B68ED
:103C10000122DA613B68DA697B68DA607B6800223E
:103C20001A637B6810225A637B6800225A627B68A1
:103C30004FF000621A617B6800229A627B68002262
:103C400083F838203B681A6A7B685A653B685A6A71
:103C50007B689A657B684FF48032DA657B68002266
:103C60001A667B684FF480225A667B6800229A6647
:103C70003B689B68182B03D03B689B68202B03D1C3
:103C80007B688022DA6602E07B684022DA667B6825
:103C900002221A673B689A6A7B685A6778680BF059
:103CA00051FF0346002B01D00123FB73FB7B184619
:103CB0001037BD4680BD80B584B000AF78603960F4
:103CC0000023FB737B681B681A687B681B6822F4FF
:103CD00080321A603B681A687B681A623B68DA684F
:103CE0007B68DA623B685A687B685A607B684FF48D
:103CF00000229A617B6800225A643B689A687B685C
:103D00009A647B684FF48072DA643B681A697B6856
:103D10001A653B685A697B689A603B689A697B6858
:103D20005A617B680122DA613B68DA697B68DA6094
:103D30007B6800221A637B6810225A637B68062224
:103D40005A627B68012283F838207B680222DA639A
:103D50007B684FF400721A643B681A6A7B685A6584
:103D60003B685A6A7B689A657B680022DA657B68E3
:103D70004FF400321A667B6800225A667B68002284
:103D80009A667B680022DA667B6804221A673B68C1
:103D90009A6A7B685A6778680BF0D4FE0346002B5A
:103DA00001D00123FB737B681B681A687B681B6862
:103DB00042F480321A60FB7B18461037BD4680BD46
:103DC00080B586B000AFF860B9607A603B600023D0
:103DD0007B61FB68012B02D06FF0010385E0454B4E
:103DE000D3F8E030434A43F40023C2F8E030414BBB
:103DF000D3F8E03003F400233B613B6900237B618F
:103E00006EE03D4A7B694C2101FB03F31344012220
:103E10001A80394A7B694C2101FB03F313440233B6
:103E200000221A80344A7B694C2101FB03F31344BE
:103E30000433324A1A603B6898B22F4A7B694C219E
:103E400001FB03F313440A3302461A807B6898B2DD
:103E5000294A7B694C2101FB03F3134408330246D2
:103E60001A807B694C2202FB03F3234A1344184651
:103E70000FF070FFBB68224AA2FB03239B0998B294
:103E800020497A6913465B0013445B000B440233FC
:103E900002461A801B497A6913465B0013445B0093
:103EA0000B44043318221A8016497A6913465B00C2
:103EB00013445B000B4404221A807B694C2202FBF2
:103EC00003F30D4A98187A6913465B0013445B00AC
:103ED0000C4A1344194610F00DF87B6901337B61DD
:103EE0007A697B689A428CD3002318461837BD46FE
:103EF00080BD00BF0044025880550024489D807E4C
:103F0000D34D62101856002480B592B000AFF8600F
:103F1000B9607A6000237B64FB68022B03D96FF0E1
:103F200001037B64B6E0FB68022B1FD0FB6898227C
:103F300002FB03F35A4A98185A49FA6813465B0081
:103F400013441B010B440C331B68DB087A68B2FB7B
:103F5000F3F39BB21A46B9680CF0C8F80346002B7D
:103F600000F098806FF003037B6493E04D49FA689A
:103F700013465B0013441B010B441433BA681A60E8
:103F80004849FA6813465B0013441B010B441C3379
:103F90007A681A60444B00221A60444B00221A606F
:103FA00020233B633B6B93FAA3F3FB62FB6A7B63C7
:103FB0007B6B002B01D1202303E07B6BB3FA83F3EF
:103FC000DBB2043B542202FB03F3394A9818202346
:103FD000FB63FB6B93FAA3F3BB63BB6B3B643B6C70
:103FE000002B01D1202303E03B6CB3FA83F3DBB257
:103FF000043B5B032F4A13444FF40062194603F05D
:104000001DFD0346002B03D06FF003037B6441E0EA
:104010001023BB61BB6993FAA3F37B617B69FB61EE
:10402000FB69002B01D1202303E0FB69B3FA83F382
:10403000DBB2043B542202FB03F31D4A9818102301
:104040007B627B6A93FAA3F33B623B6ABB62BB6A07
:10405000002B01D1202303E0BB6AB3FA83F3DBB268
:10406000043B5B03134A13444FF40062194603F008
:10407000E5FC0346002B03D06FF003037B6409E0EB
:104080000849FA6813465B0013441B010B442433B0
:1040900001221A607B6C18464837BD4680BD00BFC0
:1040A000B8110024E81200245C15002460150024D7
:1040B000880F00248015002480B586B000AF78609A
:1040C00039607B68002B02D13B68102B0BD07B68DA
:1040D000002B02D13B68002B05D07B68012B0ED151
:1040E0003B68102B0BD11A4A7B68982101FB03F324
:1040F000134484331B68184604F076FD24E07B6883
:10410000022B21D13B680F2B1ED93B68802B1BD87B
:104110003B683B613B6993FAA3F3FB60FB687B61FF
:104120007B69002B01D1202303E07B69B3FA83F381
:10413000DBB2043B074A542101FB03F31344283349
:104140001B68184604F050FD00BF1837BD4680BDFF
:10415000B8110024880F002480B5AEB000AF78609D
:10416000A74BD3F88830012B03D102200DF05AFA67
:104170003CE21023C7F8A830D7F8A83093FAA3F38D
:10418000C7F8A430D7F8A430C7F8AC30D7F8AC30B3
:10419000002B01D1202304E0D7F8AC30B3FA83F32D
:1041A000DBB2043B542202FB03F3964A13447A68C1
:1041B0009A421CD11023C7F89C30D7F89C3093FA50
:1041C000A3F3C7F89830D7F89830C7F8A030D7F8DD
:1041D000A030002B01D1202304E0D7F8A030B3FA9F
:1041E00083F3DBB2043B884A012142F823102023E9
:1041F000C7F89030D7F8903093FAA3F3C7F88C3013
:10420000D7F88C30C7F89430D7F89430002B01D110
:10421000202304E0D7F89430B3FA83F3DBB2043BF5
:10422000542202FB03F3774A13447A689A421CD162
:104230002023C7F88430D7F8843093FAA3F3C7F863
:104240008030D7F88030C7F88830D7F88830002B16
:1042500001D1202304E0D7F88830B3FA83F3DBB22E
:10426000043B694A012142F823101023BB67BB6F4E
:1042700093FAA3F37B677B6FFB67FB6F002B01D186
:10428000202303E0FB6FB3FA83F3DBB2043B5E4A07
:1042900052F82330012B40F088812023FB66FB6E0F
:1042A00093FAA3F3BB66BB6E3B673B6F002B01D158
:1042B000202303E03B6FB3FA83F3DBB2043B524AA3
:1042C00052F82330012B40F0708110237B637B6B0D
:1042D00093FAA3F33B633B6BBB63BB6B002B01D136
:1042E000202303E0BB6BB3FA83F3DBB2043B5B0335
:1042F00003F58053454A1344BB644FF480537B64F9
:104300007B6C002B1DDDBB6C03F01F027B6C134428
:104310003B64BB6CFB63BFF34F8F00BF3C4AFB6B3E
:10432000C2F85C32FB6B2033FB633B6C203B3B648D
:104330003B6C002BF2DCBFF34F8F00BFBFF36F8FDE
:1043400000BF00BF20233B653B6D93FAA3F3FB64E2
:10435000FB6C7B657B6D002B01D1202303E07B6D23
:10436000B3FA83F3DBB2043B5B0303F58053274AC4
:1043700013447B664FF480533B663B6E002B1DDD80
:104380007B6E03F01F023B6E1344FB657B6EBB65C7
:10439000BFF34F8F00BF1E4ABB6DC2F85C32BB6DCE
:1043A0002033BB65FB6D203BFB65FB6D002BF2DC16
:1043B000BFF34F8F00BFBFF36F8F00BF00BF4FF43D
:1043C0008063C7F8B43095E00D4B1B6F022B57D1BB
:1043D0000E4AD7F8B43052F82330002B00DAFF33FE
:1043E0001B12C7F8B030D7F8B03013F5004F11DB0F
:1043F000D7F8B03047F6FF729342A8BF13460AE0E1
:10440000E8120024880F00243C5700248015002463
:1044100000ED00E0774BC7F8B030774B5A6F774B21
:104420001B685B001344D7F8B02092B21A80744A1C
:10443000D7F8B43003F5006352F82330002B00DACC
:10444000FF331B12C7F8B030D7F8B03013F5004F68
:1044500007DBD7F8B03047F6FF729342A8BF134688
:1044600000E0644BC7F8B030634B5A6F634B1B6876
:1044700001335B001344D7F8B02092B21A802FE0CA
:104480005F4AD7F8B43052F82330002B00DAFF33FC
:104490001B12C7F8B030D7F8B03013F5004F07DB68
:1044A000D7F8B03047F6FF729342A8BF134600E03A
:1044B000504BC7F8B030504B5A6F504B1B685B00E5
:1044C0001344D7F8B02092B21A804B4B5A6F4B4B23
:1044D0001B6801335B001344D7F8B02092B21A80F6
:1044E000464B1B680233454A1360D7F8B43001339A
:1044F000C7F8B430D7F8B430B3F5006FFFF464AF49
:104500003D4B5A6F3C4BDB6F5B007A613B613B6913
:10451000002B1DDD7B6903F01F023B691344FB6028
:104520007B69BB60BFF34F8F00BF364ABB68C2F8E0
:104530006832BB682033BB60FB68203BFB60FB68D4
:10454000002BF2DCBFF34F8F00BFBFF36F8F00BFB4
:1045500000BF1023FB61FB6993FAA3F3BB61BB6946
:104560003B623B6A002B01D1202303E03B6AB3FA94
:1045700083F3DBB2043B244A002142F823102023BA
:10458000BB62BB6A93FAA3F37B627B6AFB62FB6A42
:10459000002B01D1202303E0FB6AB3FA83F3DBB2E3
:1045A000043B194A002142F82310134BDB6F9A0891
:1045B000124B1B689A4209D1144B1B68002B05D182
:1045C000124B01221A6002200CF09EFF0A4BDB6F97
:1045D0005A080A4B1B689A4208D1084B00221A60FD
:1045E0000A4B00221A6002200DF01CF800BFB837F9
:1045F000BD4680BD0080FFFFE81200245C1500244A
:104600008015002400ED00E03C57002460150024D4
:1046100080B5AEB000AF7860A54BD3F88830012BE1
:1046200003D102200CF070FF38E21023C7F8A83045
:10463000D7F8A83093FAA3F3C7F8A430D7F8A4307A
:10464000C7F8AC30D7F8AC30002B01D1202304E000
:10465000D7F8AC30B3FA83F3DBB2043B542202FB4D
:1046600003F3944A13447A689A421CD11023C7F882
:104670009C30D7F89C3093FAA3F3C7F89830D7F85A
:104680009830C7F8A030D7F8A030002B01D12023F4
:1046900004E0D7F8A030B3FA83F3DBB2043B864AD8
:1046A000012142F823102023C7F89030D7F890302A
:1046B00093FAA3F3C7F88C30D7F88C30C7F894304E
:1046C000D7F89430002B01D1202304E0D7F89430A0
:1046D000B3FA83F3DBB2043B542202FB03F3754AC3
:1046E00013447A689A421CD12023C7F88430D7F843
:1046F000843093FAA3F3C7F88030D7F88030C7F836
:104700008830D7F88830002B01D1202304E0D7F877
:104710008830B3FA83F3DBB2043B674A012142F8E5
:1047200023101023BB67BB6F93FAA3F37B677B6FE8
:10473000FB67FB6F002B01D1202303E0FB6FB3FA73
:1047400083F3DBB2043B5C4A52F82330012B40F088
:1047500084812023FB66FB6E93FAA3F3BB66BB6EDA
:104760003B673B6F002B01D1202303E03B6FB3FA83
:1047700083F3DBB2043B504A52F82330012B40F064
:104780006C8110237B637B6B93FAA3F33B633B6BDE
:10479000BB63BB6B002B01D1202303E0BB6BB3FADF
:1047A00083F3DBB2043B5B03444A1344BB644FF422
:1047B00080537B647B6C002B1DDDBB6C03F01F0200
:1047C0007B6C13443B64BB6CFB63BFF34F8F00BF38
:1047D0003B4AFB6BC2F85C32FB6B2033FB633B6CE8
:1047E000203B3B643B6C002BF2DCBFF34F8F00BFE0
:1047F000BFF36F8F00BF00BF20233B653B6D93FA73
:10480000A3F3FB64FB6C7B657B6D002B01D1202344
:1048100003E07B6DB3FA83F3DBB2043B5B03274A0F
:1048200013447B664FF480533B663B6E002B1DDDCB
:104830007B6E03F01F023B6E1344FB657B6EBB6512
:10484000BFF34F8F00BF1E4ABB6DC2F85C32BB6D19
:104850002033BB65FB6D203BFB65FB6D002BF2DC61
:10486000BFF34F8F00BFBFF36F8F00BF00BF0023A8
:10487000C7F8B43096E00E4B1B6F022B58D10F4A8D
:10488000D7F8B43052F82330002B00DAFF331B1274
:10489000C7F8B030D7F8B03013F5004F12DBD7F8B7
:1048A000B03047F6FF729342A8BF13460BE000BF3B
:1048B000E8120024880F00244C570024801500249F
:1048C00000ED00E0774BC7F8B030774B5A6F774B6D
:1048D0001B685B001344D7F8B02092B21A80744A68
:1048E000D7F8B43003F5006352F82330002B00DA18
:1048F000FF331B12C7F8B030D7F8B03013F5004FB4
:1049000007DBD7F8B03047F6FF729342A8BF1346D3
:1049100000E0644BC7F8B030634B5A6F634B1B68C1
:1049200001335B001344D7F8B02092B21A802FE015
:104930005F4AD7F8B43052F82330002B00DAFF3347
:104940001B12C7F8B030D7F8B03013F5004F07DBB3
:10495000D7F8B03047F6FF729342A8BF134600E085
:10496000504BC7F8B030504B5A6F504B1B685B0030
:104970001344D7F8B02092B21A804B4B5A6F4B4B6E
:104980001B6801335B001344D7F8B02092B21A8041
:10499000464B1B680233454A1360D7F8B4300133E5
:1049A000C7F8B430D7F8B430B3F5806FFFF463AF15
:1049B0003D4B5A6F3C4BDB6F5B007A613B613B695F
:1049C000002B1DDD7B6903F01F023B691344FB6074
:1049D0007B69BB60BFF34F8F00BF364ABB68C2F82C
:1049E0006832BB682033BB60FB68203BFB60FB6820
:1049F000002BF2DCBFF34F8F00BFBFF36F8F00BF00
:104A000000BF1023FB61FB6993FAA3F3BB61BB6991
:104A10003B623B6A002B01D1202303E03B6AB3FADF
:104A200083F3DBB2043B244A002142F82310202305
:104A3000BB62BB6A93FAA3F37B627B6AFB62FB6A8D
:104A4000002B01D1202303E0FB6AB3FA83F3DBB22E
:104A5000043B194A002142F82310134BDB6F9A08DC
:104A6000124B1B689A4209D1144B1B68002B05D1CD
:104A7000124B01221A6002200CF046FD0A4BDB6F3C
:104A80005A080A4B1B689A4208D1084B00221A6048
:104A90000A4B00221A6002200CF0C4FD00BFB83798
:104AA000BD4680BD0080FFFFE81200245C15002495
:104AB0008015002400ED00E04C5700246015002410
:104AC00080B582B000AF786000200CF01DFD00BF03
:104AD0000837BD4680BD80B582B000AF7860002049
:104AE0000CF0A0FD00BF0837BD4680BD80B483B088
:104AF00000AF786000BF0C37BD465DF8047B70479F
:104B000080B58EB000AF78600223BB620023FB62E9
:104B100003233B63494BD3F8F030484A43F08043CA
:104B2000C2F8F030454BD3F8F03003F080433B62DD
:104B30003B6A424BD3F8E030404A43F01003C2F8DE
:104B4000E0303E4BD3F8E03003F01003FB61FB692B
:104B50003A4BD3F8E030394A43F01003C2F8E03062
:104B6000364BD3F8E03003F01003BB61BB69334B25
:104B7000D3F8E030314A43F01003C2F8E0302F4B55
:104B8000D3F8E03003F010037B617B692B4BD3F843
:104B9000E0302A4A43F02003C2F8E030274BD3F834
:104BA000E03003F020033B613B69244BD3F8E03055
:104BB000224A43F02003C2F8E030204BD3F8E03023
:104BC00003F02003FB60FB684FF400737B62032358
:104BD0007B6307F124031946194805F05DFE802325
:104BE0007B6203237B6307F124031946144805F015
:104BF00053FE80237B6203237B6307F12403194662
:104C00000F4805F049FE4FF400537B6203237B639A
:104C100007F1240319460B4805F03EFE4FF40053FC
:104C20007B6203237B6307F124031946054805F0E3
:104C300033FE00BF3837BD4680BD00BF0044025878
:104C4000001002580014025890B5A1B000AF78606F
:104C500007F1380300221A605A609A60DA605E4AEF
:104C600007F1300392E8030083E803005B4B07F190
:104C700020040FCB84E80F00594B07F110040FCB31
:104C800084E80F00574BD3F8F030564A43F0804386
:104C9000C2F8F030534BD3F8F03003F08043FB60A0
:104CA000FB68504BD3F8D8304E4A43F00203C2F8A9
:104CB000D8304C4BD3F8D83003F00203BB60BB684C
:104CC0000023FB6788E110233B673B6F93FAA3F354
:104CD000FB66FB6E7B677B6F002B01D1202303E01B
:104CE0007B6FB3FA83F3DBB2043B9B0080333B441E
:104CF00053F8483C012B0FD03B4B5B6E03F0100385
:104D0000002B09D00023BB67BB6F9B0080333B4463
:104D1000012243F8482C86E020237B667B6E93FAC1
:104D2000A3F33B663B6EBB66BB6E002B01D1202319
:104D300003E0BB6EB3FA83F3DBB2043B9B0080332A
:104D40003B4453F8483C012B0FD0274B5B6E03F0DC
:104D50002003002B09D00123BB67BB6F9B0080336E
:104D60003B44012243F8482C5DE04023BB65BB6D0A
:104D700093FAA3F37B657B6DFB65FB6D002B01D183
:104D8000202303E0FB6DB3FA83F3DBB2043B9B000B
:104D900080333B4453F8483C012B0FD0124B5B6EE1
:104DA00003F04003002B09D00223BB67BB6F9B00BD
:104DB00080333B44012243F8482C34E08023FB64D9
:104DC000FB6C93FAA3F3BB64BB6C3B653B6D002BA0
:104DD0000CD120230EE000BFA05A0108A85A0108F8
:104DE000B85A010800440258E81200243B6DB3FA97
:104DF00083F3DBB2043B9B0080333B4453F8483CD5
:104E0000012B00F0ED80784B5B6E03F08003002BEC
:104E100000F0E6800323BB67BB6F9B0080333B44FD
:104E2000012243F8482CBB6F9B0080333B4453F86E
:104E3000701C6E48BA6F13461B019B1ADB000344BB
:104E400004331960BB6F9B0080333B4453F8601CF4
:104E50006648BA6F13461B019B1ADB0003441960B6
:104E60006249BA6F13461B019B1ADB000B440833DF
:104E700000221A605D49BA6F13461B019B1ADB00C2
:104E80000B440C3300221A605849BA6F13461B01B9
:104E90009B1ADB000B4410334FF480621A605349B5
:104EA000BA6F13461B019B1ADB000B4414334FF4FB
:104EB00080521A604D49BA6F13461B019B1ADB00E2
:104EC0000B4418334FF480421A604849BA6F1346B6
:104ED0001B019B1ADB000B441C334FF480721A60D9
:104EE0004249BA6F13461B019B1ADB000B44203367
:104EF0004FF400321A603D49BA6F13461B019B1AEA
:104F0000DB000B44243300221A603849BA6F134681
:104F10001B019B1ADB000B442C3300221A6033491F
:104F2000BA6F13461B019B1ADB000B44303300227F
:104F30001A602E49BA6F13461B019B1ADB000B4403
:104F4000353300221A70BA6F13461B019B1ADB001F
:104F5000264A1A442649BB6F542000FB03F30B4436
:104F600028331A60BB6F542202FB03F3204A9918BE
:104F70001E48BA6F13461B019B1ADB0003443833EB
:104F800019601A49BA6F13461B019B1ADB000B44C8
:104F9000353300221A70BA6F13461B019B1ADB00CF
:104FA000124A1344184602F0A7FEBB6F5B00803321
:104FB0003B4433F9503C00220F21184602F08FFA8F
:104FC000BB6F5B0080333B4433F9503C184602F022
:104FD000A0FAFB6F0133FB67FB6F032B7FF673AE09
:104FE00000BF8437BD4690BDE81200247C13002426
:104FF000880F002480B584B000AF786039603968CC
:10500000786800F007F80346FB73FB7B18461037FF
:10501000BD4680BD80B5B0B000AF78603960002378
:1050200087F8BF301C4B1B78002B2FD107F10803EA
:10503000B4220021184610F081FA4FF4A063BB603F
:105040001923FB604FF4AC733B6107237B610223A0
:10505000BB610223FB6100233B6220237B620023B0
:10506000BB620123FB654FF40013C7F8A83007F1BA
:105070000803184608F052FB034687F8BF3097F83C
:10508000BF30002B02D1044B01221A7097F8BF30B9
:105090001846C037BD4680BD5C57002480B582B03D
:1050A00000AF00237B60164B164A1A60164B1B6834
:1050B0005A1C15490A60002B1DD1114806F0B2F99F
:1050C0000346002B17D10E4800F094FB7B68002BA1
:1050D00011D108F00DFB03460C49184600F014F9F5
:1050E00003461946064800F03BF80346002B02D061
:1050F0006FF007037B607B6818460837BD4680BDAC
:1051000060570024001C0058AC570024A086010002
:1051100080B582B000AF00237B600F4B1B68002B73
:1051200014D00D4B1B68013B0B4A13600A4B1B68E4
:10513000002B0BD1094800F0C3FB084805F000FF25
:105140000346002B02D06FF007037B607B68184694
:105150000837BD4680BD00BFAC570024605700240F
:1051600080B584B000AF786039600023FB737B6842
:105170003A685A607B6800229A607B680122DA6094
:105180007B6800221A617B6800225A617B680022DA
:105190009A617B680022DA617B6800221A62786873
:1051A00005F03EFE0346002B02D00123FB7314E002
:1051B0000023BB60B968786806F06AFB0346002BE1
:1051C00002D00123FB7308E00021786806F0ABFBF6
:1051D0000346002B01D00123FB73FB7B18461037DD
:1051E000BD4680BD80B588B002AFBA601A4603469E
:1051F000FB810B46BB811346FB80B989F889FB888C
:105200000093BB68012200F0A5FB0346002B02D1EE
:1052100000237B610CE0094806F012F90346042BD9
:1052200003D16FF065037B6102E06FF003037B61E4
:105230007B6918461837BD4680BD00BF6057002403
:1052400080B588B002AFBA601A460346FB810B46B0
:10525000BB811346FB80B989F889FB880093BB6842
:10526000022200F051FB0346002B02D100237B6198
:105270000CE0094806F0E4F80346042B03D16FF074
:1052800065037B6102E06FF003037B617B69184675
:105290001837BD4680BD00BF6057002480B588B078
:1052A00002AFBA601A460346FB810B46BB81134628
:1052B000FB80B989F889FB880093BB68022200F063
:1052C00049FB0346002B02D100237B610CE0094817
:1052D00006F0B6F80346042B03D16FF065037B613B
:1052E00002E06FF003037B617B6918461837BD4607
:1052F00080BD00BF6057002480B500AF01F0D4FF2F
:105300000346184680BD000080B586B000AF7860C7
:10531000396000237B617B68002B6BD03B68002BDE
:1053200068D000233B6160E0354A3B692C2101FBDA
:1053300003F3134404331B683A689A4252D3304A49
:105340003B692C2101FB03F3134408331B683A68C3
:105350009A4247D83969786800F056F83969786810
:1053600000F040F9F860FB687F2B42D82549FA68C5
:1053700013469B0013449B000B441B6819072148EC
:10538000FA6813469B0013449B00034404331B68D4
:105390001B0503F4700319431A48FA6813469B006F
:1053A00013449B00034408331B681B0403F470235D
:1053B00019431448FA6813469B0013449B000344A6
:1053C0000C331B681B029BB219430E48FA68134644
:1053D0009B0013449B00034410331B68DBB20B4358
:1053E0007B6106E03B6901333B613B69022B9BD942
:1053F00000E000BF7B6918461837BD4680BD00BF7E
:10540000A45B0108B057002480B48FB000AF78606F
:10541000396010237B637B685A086E4B13447A68AB
:10542000B3FBF2F3FB613223BB614FF482737B6108
:10543000694A3B682C2101FB03F3134424331B68A6
:105440001846654A3B682C2101FB03F313440C33D7
:105450001B68C218BB69D21A5F493B682C2000FB4D
:1054600003F30B4428331B680333F96901FB03F38F
:10547000D31A3B63584A3B682C2101FB03F31344C6
:1054800010331B681846544A3B682C2101FB03F378
:10549000134420331B68C21A7B69D21A4E493B68F9
:1054A0002C2000FB03F30B4428331B680433F969F9
:1054B00001FB03F3D31AFB62474A3B682C2101FB33
:1054C00003F3134420331B681846434A3B682C21DE
:1054D00001FB03F3134414331B6803443B613B6B30
:1054E000002B01DC00233B63FB6A002B01DC002363
:1054F000FB620023BB6262E000237B6259E07B6AAF
:105500000133BA6A013203FB02F2FB6902FB03F3C7
:10551000FB603B69FA689A4248D300233B6242E051
:10552000BB6A01333A6A03FB02F2FB6902FB03F335
:10553000BB603B6BBA689A4232D3FB6ABA689A4244
:105540002ED8BA6A7B6B9A422AD0244B1A68244917
:1055500013469B0013449B000B44BA6A1A601F4B0E
:105560001A681F4913469B0013449B000B440433E5
:105570007A6A1A60194B1A68194913469B0013443A
:105580009B000B4408333A6A1A60BB6A7B63134B77
:105590001B680133114A1360104B1B687F2B12D814
:1055A0003B6A01333B623B6A0F2BB9D97B6A0133FB
:1055B0007B627B6A0F2BA2D9BB6A0133BB62BB6AD9
:1055C0000F2B99D900E000BF3C37BD465DF8047B46
:1055D000704700BF00CA9A3BA45B0108B061002479
:1055E000B057002480B493B000AF786039604FF0BA
:1055F000FF337B647B685A087A4B13447A68B3FBA9
:10560000F2F3FB62784A3B682C2101FB03F313445D
:105610001B685A08734B134473493A682C2000FBEB
:1056200002F20A441268B3FBF2F3BB6232237B62DC
:105630006D4A3B682C2101FB03F3134428331A689D
:10564000FB6A02FB03F33B62674A3B682C2101FBC8
:1056500003F3134404331B68624AB2FBF3F3FB61A8
:10566000614A3B682C2101FB03F3134408331B6898
:105670005C4AB2FBF3F3BB61BB6A3B6400237B6310
:10568000A3E05A497A6B13469B0013449B000B44DA
:105690001B685A1CFB6A02FB03F37B610023FB635C
:1056A0008CE07A6A3B6A1A44FB6B0133796903FB2D
:1056B00001F1FB6A5B000B4413443B614A4A3B68BF
:1056C0002C2101FB03F3134418331B683A699A42F7
:1056D00071D93A697B6AD21A3B6AD31A9B08FA6A73
:1056E0009A4268D20023BB6362E07A6A3B6A1A443A
:1056F000BB6B0133796903FB01F1FB6A5B000B446F
:105700001344FB603A69FB681A4437493B682C2014
:1057100000FB03F30B4420331B681A4432493B68F7
:105720002C2000FB03F30B4424331B681344BB60A1
:10573000BA68BB699A4238D3BA68FB699A4234D8CE
:10574000294A3B682C2101FB03F313441C331B68DB
:10575000FA689A4229D3FA6AFB689A4225D2BA6853
:10576000BB6AD31A3B633B6B002B02DA3B6B5B4299
:105770003B633B6B3A6C9A4217D93B6B3B641B49CA
:105780007A6B13469B0013449B000B441033FA6B57
:105790001A6016497A6B13469B0013449B000B4416
:1057A0000C33BA6B1A607B6B7B64BB6B0133BB63DE
:1057B000BB6BFF2B99D9FB6B0133FB63FB6BFF2B9F
:1057C0007FF66FAF7B6B01337B63094B1B687A6B92
:1057D0009A42FFF456AF7B6C18464C37BD465DF8D5
:1057E000047B704700CA9A3BA45B0108B0570024B1
:1057F000B061002480B58AB000AF78602E4BD3F83A
:10580000E0302D4A43F02003C2F8E0302A4BD3F8B1
:10581000E03003F020033B613B69274BD3F8E030D5
:10582000254A43F02003C2F8E030234BD3F8E030A0
:1058300003F02003FB60FB684FF480437B6112237D
:10584000BB610123FB6102233B6204237B6207F1FE
:1058500014031946194805F01FF84FF400437B6103
:1058600004237B6207F114031946144805F014F869
:10587000114BD3F8F430104A43F08003C2F8F430EF
:105880000D4BD3F8F43003F08003BB60BB680A4BC8
:10589000D3F89C30084A43F08003C2F89C30064B92
:1058A000D3F89C30044A23F08003C2F89C3000BF38
:1058B0002837BD4680BD00BF00440258001402587E
:1058C00080B588B000AF78604FF48043FB60FB6820
:1058D00019460B4805F088F94FF40043FB60FB685C
:1058E0001946074805F080F9064BD3F8F430054A0D
:1058F00023F08003C2F8F43000BF2037BD4680BDDE
:10590000001402580044025880B588B004AF7B6090
:105910000346FB810B46BB8113467B817889BA899C
:10592000F9894FF47A7302933B8B01937B68009360
:105930000346074805F048FB0346002B01D100232E
:1059400001E06FF0070318461037BD4680BD00BF69
:105950006057002480B588B004AF7B600346FB81AC
:105960000B46BB8113467B817889BA89F9894FF44C
:105970007A7302933B8B01937B680093034607483D
:1059800005F036FC0346002B01D1002301E06FF047
:10599000070318461037BD4680BD00BF605700247E
:1059A00080B584B002AF786039604FF4887300939B
:1059B0004FF4F07301223968786800F005F8034667
:1059C00018460837BD4680BD80B59EB000AFF86070
:1059D000B9607A603B6000237B67BB68012B02D80B
:1059E000FB68002B03D06FF001037B67CFE07B687F
:1059F000022B05D102233B67674B02221A6005E0A8
:105A000000233B67644B04221A6000BF6349FA68B5
:105A100013465B001344DB000B440C337A681A60B6
:105A20005E49FA6813465B001344DB000B443A6896
:105A30001A605A49FA6813465B001344DB000B44B2
:105A40000433D7F880201A60554B564A1A60564BDB
:105A5000564A1A60524800F085FD00224FF400516A
:105A6000534805F0C3F901224FF48061514805F015
:105A7000BDF901224FF400414F4805F0B7F94A48FB
:105A800000F0C2FE4D4B3B634D4B3B6470233B87A4
:105A900007F1300207F1480311461846FAF738FCBF
:105AA0000346002B03DA6FF006037B672AE007F159
:105AB000480344491846FAF76DFC0346002B03DA05
:105AC0006FF006037B671DE03E4B1B68512B03D034
:105AD0006FF006037B6715E0314800F003F90346D9
